{
  "_format": "hh-sol-artifact-1",
  "contractName": "TerstenFaucet",
  "sourceName": "contracts/TerstenFaucet.sol",
  "abi": [
    {
      "anonymous": false,
      "inputs": [
        {
          "indexed": false,
          "internalType": "address",
          "name": "donator",
          "type": "address"
        },
        {
          "indexed": false,
          "internalType": "uint256",
          "name": "amount",
          "type": "uint256"
        }
      ],
      "name": "Donated",
      "type": "event"
    },
    {
      "anonymous": false,
      "inputs": [
        {
          "indexed": true,
          "internalType": "address",
          "name": "previousOwner",
          "type": "address"
        },
        {
          "indexed": true,
          "internalType": "address",
          "name": "newOwner",
          "type": "address"
        }
      ],
      "name": "OwnershipTransferred",
      "type": "event"
    },
    {
      "anonymous": false,
      "inputs": [
        {
          "indexed": false,
          "internalType": "address",
          "name": "withdrawer",
          "type": "address"
        },
        {
          "indexed": false,
          "internalType": "uint256",
          "name": "amount",
          "type": "uint256"
        },
        {
          "indexed": false,
          "internalType": "uint256",
          "name": "withdrawTime",
          "type": "uint256"
        }
      ],
      "name": "Withdrawn",
      "type": "event"
    },
    {
      "inputs": [],
      "name": "donate",
      "outputs": [],
      "stateMutability": "payable",
      "type": "function"
    },
    {
      "inputs": [
        {
          "internalType": "address",
          "name": "",
          "type": "address"
        }
      ],
      "name": "donateTimes",
      "outputs": [
        {
          "internalType": "uint256",
          "name": "",
          "type": "uint256"
        }
      ],
      "stateMutability": "view",
      "type": "function"
    },
    {
      "inputs": [
        {
          "internalType": "address",
          "name": "",
          "type": "address"
        }
      ],
      "name": "donations",
      "outputs": [
        {
          "internalType": "uint256",
          "name": "",
          "type": "uint256"
        }
      ],
      "stateMutability": "view",
      "type": "function"
    },
    {
      "inputs": [],
      "name": "owner",
      "outputs": [
        {
          "internalType": "address",
          "name": "",
          "type": "address"
        }
      ],
      "stateMutability": "view",
      "type": "function"
    },
    {
      "inputs": [],
      "name": "renounceOwnership",
      "outputs": [],
      "stateMutability": "nonpayable",
      "type": "function"
    },
    {
      "inputs": [],
      "name": "totalDonation",
      "outputs": [
        {
          "internalType": "uint256",
          "name": "",
          "type": "uint256"
        }
      ],
      "stateMutability": "view",
      "type": "function"
    },
    {
      "inputs": [
        {
          "internalType": "address",
          "name": "newOwner",
          "type": "address"
        }
      ],
      "name": "transferOwnership",
      "outputs": [],
      "stateMutability": "nonpayable",
      "type": "function"
    },
    {
      "inputs": [
        {
          "internalType": "uint256",
          "name": "_withdrawAmount",
          "type": "uint256"
        }
      ],
      "name": "withdraw",
      "outputs": [],
      "stateMutability": "nonpayable",
      "type": "function"
    },
    {
      "inputs": [
        {
          "internalType": "uint256",
          "name": "_withdrawAmount",
          "type": "uint256"
        }
      ],
      "name": "withdrawDonation",
      "outputs": [],
      "stateMutability": "nonpayable",
      "type": "function"
    }
  ],
  "bytecode": "0x608060405260b460025534801561001557600080fd5b5061003261002761003760201b60201c565b61003f60201b60201c565b610103565b600033905090565b60008060009054906101000a900473ffffffffffffffffffffffffffffffffffffffff169050816000806101000a81548173ffffffffffffffffffffffffffffffffffffffff021916908373ffffffffffffffffffffffffffffffffffffffff1602179055508173ffffffffffffffffffffffffffffffffffffffff168173ffffffffffffffffffffffffffffffffffffffff167f8be0079c531659141344cd1fd0a4f28419497f9722a3daafe3b4186f6b6457e060405160405180910390a35050565b610d7f806101126000396000f3fe6080604052600436106100865760003560e01c806396afccb31161005957806396afccb314610133578063cc6cb19a1461015c578063ed88c68e14610199578063ee2ac05f146101a3578063f2fde38b146101ce57610086565b80632e1a7d4d1461008b57806335d7bd7d146100b4578063715018a6146100f15780638da5cb5b14610108575b600080fd5b34801561009757600080fd5b506100b260048036038101906100ad9190610815565b6101f7565b005b3480156100c057600080fd5b506100db60048036038101906100d691906108a0565b61029b565b6040516100e891906108dc565b60405180910390f35b3480156100fd57600080fd5b506101066102b3565b005b34801561011457600080fd5b5061011d6102c7565b60405161012a9190610906565b60405180910390f35b34801561013f57600080fd5b5061015a60048036038101906101559190610815565b6102f0565b005b34801561016857600080fd5b50610183600480360381019061017e91906108a0565b6104be565b60405161019091906108dc565b60405180910390f35b6101a16104d6565b005b3480156101af57600080fd5b506101b8610607565b6040516101c591906108dc565b60405180910390f35b3480156101da57600080fd5b506101f560048036038101906101f091906108a0565b61060d565b005b6101ff610690565b47811015610242576040517f08c379a0000000000000000000000000000000000000000000000000000000008152600401610239906109a4565b60405180910390fd5b61024a6102c7565b73ffffffffffffffffffffffffffffffffffffffff166108fc829081150290604051600060405180830381858888f1935050505015801561028f573d6000803e3d6000fd5b50600060018190555050565b60046020528060005260406000206000915090505481565b6102bb610690565b6102c5600061070e565b565b60008060009054906101000a900473ffffffffffffffffffffffffffffffffffffffff16905090565b6000600254600460003373ffffffffffffffffffffffffffffffffffffffff1673ffffffffffffffffffffffffffffffffffffffff1681526020019081526020016000205461033f91906109f3565b905081600360003373ffffffffffffffffffffffffffffffffffffffff1673ffffffffffffffffffffffffffffffffffffffff1681526020019081526020016000205410156103c3576040517f08c379a00000000000000000000000000000000000000000000000000000000081526004016103ba90610a73565b60405180910390fd5b804210610405576040517f08c379a00000000000000000000000000000000000000000000000000000000081526004016103fc90610b05565b60405180910390fd5b81600360003373ffffffffffffffffffffffffffffffffffffffff1673ffffffffffffffffffffffffffffffffffffffff16815260200190815260200160002060008282546104549190610b25565b92505081905550816001600082825461046d9190610b25565b925050819055507f92ccf450a286a957af52509bc1c9939d1a6a481783e142e41e2499f0bb66ebc6338342846104a39190610b25565b6040516104b293929190610b59565b60405180910390a15050565b60036020528060005260406000206000915090505481565b60003411610519576040517f08c379a000000000000000000000000000000000000000000000000000000000815260040161051090610c02565b60405180910390fd5b42600460003373ffffffffffffffffffffffffffffffffffffffff1673ffffffffffffffffffffffffffffffffffffffff16815260200190815260200160002081905550346001600082825461056f91906109f3565b9250508190555034600360003373ffffffffffffffffffffffffffffffffffffffff1673ffffffffffffffffffffffffffffffffffffffff16815260200190815260200160002060008282546105c591906109f3565b925050819055507f2a01595cddf097c90216094025db714da3f4e5bd8877b56ba86a24ecead8e54333346040516105fd929190610c22565b60405180910390a1565b60015481565b610615610690565b600073ffffffffffffffffffffffffffffffffffffffff168173ffffffffffffffffffffffffffffffffffffffff1603610684576040517f08c379a000000000000000000000000000000000000000000000000000000000815260040161067b90610cbd565b60405180910390fd5b61068d8161070e565b50565b6106986107d2565b73ffffffffffffffffffffffffffffffffffffffff166106b66102c7565b73ffffffffffffffffffffffffffffffffffffffff161461070c576040517f08c379a000000000000000000000000000000000000000000000000000000000815260040161070390610d29565b60405180910390fd5b565b60008060009054906101000a900473ffffffffffffffffffffffffffffffffffffffff169050816000806101000a81548173ffffffffffffffffffffffffffffffffffffffff021916908373ffffffffffffffffffffffffffffffffffffffff1602179055508173ffffffffffffffffffffffffffffffffffffffff168173ffffffffffffffffffffffffffffffffffffffff167f8be0079c531659141344cd1fd0a4f28419497f9722a3daafe3b4186f6b6457e060405160405180910390a35050565b600033905090565b600080fd5b6000819050919050565b6107f2816107df565b81146107fd57600080fd5b50565b60008135905061080f816107e9565b92915050565b60006020828403121561082b5761082a6107da565b5b600061083984828501610800565b91505092915050565b600073ffffffffffffffffffffffffffffffffffffffff82169050919050565b600061086d82610842565b9050919050565b61087d81610862565b811461088857600080fd5b50565b60008135905061089a81610874565b92915050565b6000602082840312156108b6576108b56107da565b5b60006108c48482850161088b565b91505092915050565b6108d6816107df565b82525050565b60006020820190506108f160008301846108cd565b92915050565b61090081610862565b82525050565b600060208201905061091b60008301846108f7565b92915050565b600082825260208201905092915050565b7f436f6e747261637420646f6e277420686176652074686174206d75636820457460008201527f682e000000000000000000000000000000000000000000000000000000000000602082015250565b600061098e602283610921565b915061099982610932565b604082019050919050565b600060208201905081810360008301526109bd81610981565b9050919050565b7f4e487b7100000000000000000000000000000000000000000000000000000000600052601160045260246000fd5b60006109fe826107df565b9150610a09836107df565b9250828201905080821115610a2157610a206109c4565b5b92915050565b7f596f75206469646e277420646f6e61746564207468617420616d6f756e742e00600082015250565b6000610a5d601f83610921565b9150610a6882610a27565b602082019050919050565b60006020820190508181036000830152610a8c81610a50565b9050919050565b7f596f752063616e6e6f7420776974686472617720796f757220646f6e6174696f60008201527f6e20616e796d6f72652e00000000000000000000000000000000000000000000602082015250565b6000610aef602a83610921565b9150610afa82610a93565b604082019050919050565b60006020820190508181036000830152610b1e81610ae2565b9050919050565b6000610b30826107df565b9150610b3b836107df565b9250828203905081811115610b5357610b526109c4565b5b92915050565b6000606082019050610b6e60008301866108f7565b610b7b60208301856108cd565b610b8860408301846108cd565b949350505050565b7f45746820616d6f756e74206d7573742062652062696767657220746861207a6560008201527f726f2e0000000000000000000000000000000000000000000000000000000000602082015250565b6000610bec602383610921565b9150610bf782610b90565b604082019050919050565b60006020820190508181036000830152610c1b81610bdf565b9050919050565b6000604082019050610c3760008301856108f7565b610c4460208301846108cd565b9392505050565b7f4f776e61626c653a206e6577206f776e657220697320746865207a65726f206160008201527f6464726573730000000000000000000000000000000000000000000000000000602082015250565b6000610ca7602683610921565b9150610cb282610c4b565b604082019050919050565b60006020820190508181036000830152610cd681610c9a565b9050919050565b7f4f776e61626c653a2063616c6c6572206973206e6f7420746865206f776e6572600082015250565b6000610d13602083610921565b9150610d1e82610cdd565b602082019050919050565b60006020820190508181036000830152610d4281610d06565b905091905056fea2646970667358221220e4538dd1f1c2e25b81ba7d76fd5450ea7d09ec669423551027600dd0f5eca92264736f6c63430008110033",
  "linkReferences": {},
  "deployedLinkReferences": {}
}